{
  "contractName": "ERC721Connector",
  "abi": [
    {
      "constant": true,
      "inputs": [],
      "name": "name",
      "outputs": [
        {
          "name": "",
          "type": "string"
        }
      ],
      "payable": false,
      "stateMutability": "view",
      "type": "function"
    },
    {
      "constant": true,
      "inputs": [],
      "name": "symbol",
      "outputs": [
        {
          "name": "",
          "type": "string"
        }
      ],
      "payable": false,
      "stateMutability": "view",
      "type": "function"
    },
    {
      "inputs": [
        {
          "name": "name",
          "type": "string"
        },
        {
          "name": "symbol",
          "type": "string"
        }
      ],
      "payable": false,
      "stateMutability": "nonpayable",
      "type": "constructor"
    },
    {
      "anonymous": false,
      "inputs": [
        {
          "indexed": true,
          "name": "from",
          "type": "address"
        },
        {
          "indexed": true,
          "name": "to",
          "type": "address"
        },
        {
          "indexed": true,
          "name": "tokenId",
          "type": "uint256"
        }
      ],
      "name": "Transfer",
      "type": "event"
    }
  ],
  "bytecode": "0x608060405234801561001057600080fd5b5060405161040b38038061040b833981018060405281019080805182019291906020018051820192919050505081818160009080519060200190610055929190610076565b50806001908051906020019061006c929190610076565b505050505061011b565b828054600181600116156101000203166002900490600052602060002090601f016020900481019282601f106100b757805160ff19168380011785556100e5565b828001600101855582156100e5579182015b828111156100e45782518255916020019190600101906100c9565b5b5090506100f291906100f6565b5090565b61011891905b808211156101145760008160009055506001016100fc565b5090565b90565b6102e18061012a6000396000f30060806040526004361061004c576000357c0100000000000000000000000000000000000000000000000000000000900463ffffffff16806306fdde031461005157806395d89b41146100e1575b600080fd5b34801561005d57600080fd5b50610066610171565b6040518080602001828103825283818151815260200191508051906020019080838360005b838110156100a657808201518184015260208101905061008b565b50505050905090810190601f1680156100d35780820380516001836020036101000a031916815260200191505b509250505060405180910390f35b3480156100ed57600080fd5b506100f6610213565b6040518080602001828103825283818151815260200191508051906020019080838360005b8381101561013657808201518184015260208101905061011b565b50505050905090810190601f1680156101635780820380516001836020036101000a031916815260200191505b509250505060405180910390f35b606060008054600181600116156101000203166002900480601f0160208091040260200160405190810160405280929190818152602001828054600181600116156101000203166002900480156102095780601f106101de57610100808354040283529160200191610209565b820191906000526020600020905b8154815290600101906020018083116101ec57829003601f168201915b5050505050905090565b606060018054600181600116156101000203166002900480601f0160208091040260200160405190810160405280929190818152602001828054600181600116156101000203166002900480156102ab5780601f10610280576101008083540402835291602001916102ab565b820191906000526020600020905b81548152906001019060200180831161028e57829003601f168201915b50505050509050905600a165627a7a723058203f1400ed20f3c7cdbad63d32cf00dee16c45e382a4cb63f81e7b55103b6be7970029",
  "source": "// SPDX-License-Identifier: MIT\npragma solidity >=0.4.22 <0.9.0;\n\nimport './connector/ERC721Metadata.sol';\nimport './connector/ERC721.sol';\n\ncontract ERC721Connector is ERC721Metadata, ERC721 {\n\n    constructor(string memory name, string memory symbol) ERC721Metadata(name, symbol) {\n\n    }\n   \n}\n",
  "sourcePath": "src/contracts/ERC721Connector.sol",
  "compiler": {
    "name": "solc",
    "version": "0.4.25+commit.59dbf8f1.Emscripten.clang"
  },
  "schemaVersion": "2.0.2",
  "updatedAt": "2022-07-02T05:08:18.700Z"
}